{
  "contractName": "Medical",
  "abi": [
    {
      "constant": true,
      "inputs": [
        {
          "name": "",
          "type": "uint256"
        }
      ],
      "name": "exams",
      "outputs": [
        {
          "name": "name",
          "type": "string"
        },
        {
          "name": "typeExam",
          "type": "string"
        }
      ],
      "payable": false,
      "stateMutability": "view",
      "type": "function"
    },
    {
      "inputs": [],
      "payable": false,
      "stateMutability": "nonpayable",
      "type": "constructor"
    },
    {
      "constant": false,
      "inputs": [
        {
          "name": "_name",
          "type": "string"
        },
        {
          "name": "_typeExam",
          "type": "string"
        }
      ],
      "name": "addExam",
      "outputs": [],
      "payable": false,
      "stateMutability": "nonpayable",
      "type": "function"
    },
    {
      "constant": true,
      "inputs": [
        {
          "name": "index",
          "type": "uint256"
        }
      ],
      "name": "getExam",
      "outputs": [
        {
          "name": "",
          "type": "string"
        },
        {
          "name": "",
          "type": "string"
        }
      ],
      "payable": false,
      "stateMutability": "view",
      "type": "function"
    }
  ],
  "bytecode": "0x608060405234801561001057600080fd5b5061082f806100206000396000f3fe608060405234801561001057600080fd5b50600436106100415760003560e01c80634198cb3f14610046578063813f91d014610159578063f97563d5146102ab575b600080fd5b6100726004803603602081101561005c57600080fd5b81019080803590602001909291905050506103be565b604051808060200180602001838103835285818151815260200191508051906020019080838360005b838110156100b657808201518184015260208101905061009b565b50505050905090810190601f1680156100e35780820380516001836020036101000a031916815260200191505b50838103825284818151815260200191508051906020019080838360005b8381101561011c578082015181840152602081019050610101565b50505050905090810190601f1680156101495780820380516001836020036101000a031916815260200191505b5094505050505060405180910390f35b6102a96004803603604081101561016f57600080fd5b810190808035906020019064010000000081111561018c57600080fd5b82018360208201111561019e57600080fd5b803590602001918460018302840111640100000000831117156101c057600080fd5b91908080601f016020809104026020016040519081016040528093929190818152602001838380828437600081840152601f19601f8201169050808301925050505050505091929192908035906020019064010000000081111561022357600080fd5b82018360208201111561023557600080fd5b8035906020019184600183028401116401000000008311171561025757600080fd5b91908080601f016020809104026020016040519081016040528093929190818152602001838380828437600081840152601f19601f82011690508083019250505050505050919291929050505061051f565b005b6102d7600480360360208110156102c157600080fd5b81019080803590602001909291905050506105c4565b604051808060200180602001838103835285818151815260200191508051906020019080838360005b8381101561031b578082015181840152602081019050610300565b50505050905090810190601f1680156103485780820380516001836020036101000a031916815260200191505b50838103825284818151815260200191508051906020019080838360005b83811015610381578082015181840152602081019050610366565b50505050905090810190601f1680156103ae5780820380516001836020036101000a031916815260200191505b5094505050505060405180910390f35b600081815481106103cb57fe5b9060005260206000209060020201600091509050806000018054600181600116156101000203166002900480601f0160208091040260200160405190810160405280929190818152602001828054600181600116156101000203166002900480156104775780601f1061044c57610100808354040283529160200191610477565b820191906000526020600020905b81548152906001019060200180831161045a57829003601f168201915b505050505090806001018054600181600116156101000203166002900480601f0160208091040260200160405190810160405280929190818152602001828054600181600116156101000203166002900480156105155780601f106104ea57610100808354040283529160200191610515565b820191906000526020600020905b8154815290600101906020018083116104f857829003601f168201915b5050505050905082565b60008251118015610531575060008151115b61053a57600080fd5b610542610744565b82816000018190525081816020018190525060008190806001815401808255809150509060018203906000526020600020906002020160009091929091909150600082015181600001908051906020019061059e92919061075e565b5060208201518160010190805190602001906105bb92919061075e565b50505050505050565b606080600083815481106105d457fe5b9060005260206000209060020201600001600084815481106105f257fe5b9060005260206000209060020201600101818054600181600116156101000203166002900480601f0160208091040260200160405190810160405280929190818152602001828054600181600116156101000203166002900480156106985780601f1061066d57610100808354040283529160200191610698565b820191906000526020600020905b81548152906001019060200180831161067b57829003601f168201915b50505050509150808054600181600116156101000203166002900480601f0160208091040260200160405190810160405280929190818152602001828054600181600116156101000203166002900480156107345780601f1061070957610100808354040283529160200191610734565b820191906000526020600020905b81548152906001019060200180831161071757829003601f168201915b5050505050905091509150915091565b604051806040016040528060608152602001606081525090565b828054600181600116156101000203166002900490600052602060002090601f016020900481019282601f1061079f57805160ff19168380011785556107cd565b828001600101855582156107cd579182015b828111156107cc5782518255916020019190600101906107b1565b5b5090506107da91906107de565b5090565b61080091905b808211156107fc5760008160009055506001016107e4565b5090565b9056fea165627a7a7230582017737dce6fa76965dc20ae0d36e7268fced6c526c5f6f028570bbf651aa977cc0029",
  "source": "pragma solidity ^0.5.8;\n\ncontract Medical {\n    struct Exam {\n        string name;\n        string typeExam;\n    }\n    Exam[] public exams;\n    \n    constructor() public {}\n\n    function addExam(string memory _name, string memory _typeExam) public {\n        require (bytes(_name).length > 0 && bytes(_typeExam).length > 0 );\n\n        Exam memory newExam;\n\n        newExam.name = _name;\n        newExam.typeExam = _typeExam;\n\n        exams.push(newExam);\n    }\n\n    // Não precisa pq o array já entrega um get automaticamente\n    function getExam(uint index) public view returns(string memory, string memory) {\n        return (exams[index].name, exams[index].typeExam);\n    }\n}",
  "sourcePath": "/home/henrique/Projects/medical-dapp/contracts/Medical.sol",
  "compiler": {
    "name": "solc",
    "version": "0.5.8+commit.23d335f2.Emscripten.clang"
  },
  "schemaVersion": "3.0.10",
  "updatedAt": "2019-06-02T23:00:36.998Z",
  "devdoc": {
    "methods": {}
  },
  "userdoc": {
    "methods": {}
  }
}